{
  "contractName": "ERC20Token",
  "abi": [
    {
      "inputs": [
        {
          "internalType": "string",
          "name": "_name",
          "type": "string"
        },
        {
          "internalType": "string",
          "name": "_symbol",
          "type": "string"
        },
        {
          "internalType": "uint8",
          "name": "_decimals",
          "type": "uint8"
        },
        {
          "internalType": "uint256",
          "name": "_supply",
          "type": "uint256"
        }
      ],
      "stateMutability": "nonpayable",
      "type": "constructor"
    },
    {
      "anonymous": false,
      "inputs": [
        {
          "indexed": false,
          "internalType": "address",
          "name": "sender",
          "type": "address"
        },
        {
          "indexed": false,
          "internalType": "address",
          "name": "delegate",
          "type": "address"
        },
        {
          "indexed": false,
          "internalType": "uint256",
          "name": "tokens",
          "type": "uint256"
        }
      ],
      "name": "Approval",
      "type": "event"
    },
    {
      "anonymous": false,
      "inputs": [
        {
          "indexed": false,
          "internalType": "address",
          "name": "sender",
          "type": "address"
        },
        {
          "indexed": false,
          "internalType": "address",
          "name": "receiver",
          "type": "address"
        },
        {
          "indexed": false,
          "internalType": "uint256",
          "name": "tokens",
          "type": "uint256"
        }
      ],
      "name": "Transfer",
      "type": "event"
    },
    {
      "inputs": [
        {
          "internalType": "address",
          "name": "",
          "type": "address"
        },
        {
          "internalType": "address",
          "name": "",
          "type": "address"
        }
      ],
      "name": "allowed",
      "outputs": [
        {
          "internalType": "uint256",
          "name": "",
          "type": "uint256"
        }
      ],
      "stateMutability": "view",
      "type": "function",
      "constant": true
    },
    {
      "inputs": [
        {
          "internalType": "address",
          "name": "",
          "type": "address"
        }
      ],
      "name": "balances",
      "outputs": [
        {
          "internalType": "uint256",
          "name": "",
          "type": "uint256"
        }
      ],
      "stateMutability": "view",
      "type": "function",
      "constant": true
    },
    {
      "inputs": [],
      "name": "decimals",
      "outputs": [
        {
          "internalType": "uint8",
          "name": "",
          "type": "uint8"
        }
      ],
      "stateMutability": "view",
      "type": "function",
      "constant": true
    },
    {
      "inputs": [],
      "name": "name",
      "outputs": [
        {
          "internalType": "string",
          "name": "",
          "type": "string"
        }
      ],
      "stateMutability": "view",
      "type": "function",
      "constant": true
    },
    {
      "inputs": [],
      "name": "supply",
      "outputs": [
        {
          "internalType": "uint256",
          "name": "",
          "type": "uint256"
        }
      ],
      "stateMutability": "view",
      "type": "function",
      "constant": true
    },
    {
      "inputs": [],
      "name": "symbol",
      "outputs": [
        {
          "internalType": "string",
          "name": "",
          "type": "string"
        }
      ],
      "stateMutability": "view",
      "type": "function",
      "constant": true
    },
    {
      "inputs": [],
      "name": "totalSupply",
      "outputs": [
        {
          "internalType": "uint256",
          "name": "",
          "type": "uint256"
        }
      ],
      "stateMutability": "view",
      "type": "function",
      "constant": true
    },
    {
      "inputs": [
        {
          "internalType": "address",
          "name": "tokenOwner",
          "type": "address"
        }
      ],
      "name": "balanceOf",
      "outputs": [
        {
          "internalType": "uint256",
          "name": "",
          "type": "uint256"
        }
      ],
      "stateMutability": "view",
      "type": "function",
      "constant": true
    },
    {
      "inputs": [
        {
          "internalType": "address",
          "name": "receiver",
          "type": "address"
        },
        {
          "internalType": "uint256",
          "name": "numTokens",
          "type": "uint256"
        }
      ],
      "name": "transfer",
      "outputs": [
        {
          "internalType": "bool",
          "name": "",
          "type": "bool"
        }
      ],
      "stateMutability": "nonpayable",
      "type": "function"
    },
    {
      "inputs": [
        {
          "internalType": "address",
          "name": "delegate",
          "type": "address"
        },
        {
          "internalType": "uint256",
          "name": "numTokens",
          "type": "uint256"
        }
      ],
      "name": "approve",
      "outputs": [
        {
          "internalType": "bool",
          "name": "",
          "type": "bool"
        }
      ],
      "stateMutability": "nonpayable",
      "type": "function"
    },
    {
      "inputs": [
        {
          "internalType": "address",
          "name": "owner",
          "type": "address"
        },
        {
          "internalType": "address",
          "name": "delegate",
          "type": "address"
        }
      ],
      "name": "allowance",
      "outputs": [
        {
          "internalType": "uint256",
          "name": "",
          "type": "uint256"
        }
      ],
      "stateMutability": "view",
      "type": "function",
      "constant": true
    },
    {
      "inputs": [
        {
          "internalType": "address",
          "name": "owner",
          "type": "address"
        },
        {
          "internalType": "address",
          "name": "buyer",
          "type": "address"
        },
        {
          "internalType": "uint256",
          "name": "numTokens",
          "type": "uint256"
        }
      ],
      "name": "transferFrom",
      "outputs": [
        {
          "internalType": "bool",
          "name": "",
          "type": "bool"
        }
      ],
      "stateMutability": "nonpayable",
      "type": "function"
    }
  ],
  "bytecode": "0x60806040523480156200001157600080fd5b50604051620013b1380380620013b1833981810160405281019062000037919062000235565b83600090805190602001906200004f929190620000d9565b50826001908051906020019062000068929190620000d9565b5081600260006101000a81548160ff021916908360ff1602179055508060038190555080600460003373ffffffffffffffffffffffffffffffffffffffff1673ffffffffffffffffffffffffffffffffffffffff1681526020019081526020016000208190555050505050620004b4565b828054620000e79062000391565b90600052602060002090601f0160209004810192826200010b576000855562000157565b82601f106200012657805160ff191683800117855562000157565b8280016001018555821562000157579182015b828111156200015657825182559160200191906001019062000139565b5b5090506200016691906200016a565b5090565b5b80821115620001855760008160009055506001016200016b565b5090565b6000620001a06200019a846200030e565b620002e5565b905082815260208101848484011115620001bf57620001be62000460565b5b620001cc8482856200035b565b509392505050565b600082601f830112620001ec57620001eb6200045b565b5b8151620001fe84826020860162000189565b91505092915050565b600081519050620002188162000480565b92915050565b6000815190506200022f816200049a565b92915050565b600080600080608085870312156200025257620002516200046a565b5b600085015167ffffffffffffffff81111562000273576200027262000465565b5b6200028187828801620001d4565b945050602085015167ffffffffffffffff811115620002a557620002a462000465565b5b620002b387828801620001d4565b9350506040620002c6878288016200021e565b9250506060620002d98782880162000207565b91505092959194509250565b6000620002f162000304565b9050620002ff8282620003c7565b919050565b6000604051905090565b600067ffffffffffffffff8211156200032c576200032b6200042c565b5b62000337826200046f565b9050602081019050919050565b6000819050919050565b600060ff82169050919050565b60005b838110156200037b5780820151818401526020810190506200035e565b838111156200038b576000848401525b50505050565b60006002820490506001821680620003aa57607f821691505b60208210811415620003c157620003c0620003fd565b5b50919050565b620003d2826200046f565b810181811067ffffffffffffffff82111715620003f457620003f36200042c565b5b80604052505050565b7f4e487b7100000000000000000000000000000000000000000000000000000000600052602260045260246000fd5b7f4e487b7100000000000000000000000000000000000000000000000000000000600052604160045260246000fd5b600080fd5b600080fd5b600080fd5b600080fd5b6000601f19601f8301169050919050565b6200048b8162000344565b81146200049757600080fd5b50565b620004a5816200034e565b8114620004b157600080fd5b50565b610eed80620004c46000396000f3fe608060405234801561001057600080fd5b50600436106100b45760003560e01c8063313ce56711610071578063313ce567146101a35780635c658165146101c157806370a08231146101f157806395d89b4114610221578063a9059cbb1461023f578063dd62ed3e1461026f576100b4565b8063047fc9aa146100b957806306fdde03146100d7578063095ea7b3146100f557806318160ddd1461012557806323b872dd1461014357806327e235e314610173575b600080fd5b6100c161029f565b6040516100ce9190610c07565b60405180910390f35b6100df6102a5565b6040516100ec9190610ba5565b60405180910390f35b61010f600480360381019061010a9190610a58565b610333565b60405161011c9190610b8a565b60405180910390f35b61012d6103fb565b60405161013a9190610c07565b60405180910390f35b61015d60048036038101906101589190610a05565b610405565b60405161016a9190610b8a565b60405180910390f35b61018d60048036038101906101889190610998565b61064b565b60405161019a9190610c07565b60405180910390f35b6101ab610663565b6040516101b89190610c22565b60405180910390f35b6101db60048036038101906101d691906109c5565b610676565b6040516101e89190610c07565b60405180910390f35b61020b60048036038101906102069190610998565b61069b565b6040516102189190610c07565b60405180910390f35b6102296106e4565b6040516102369190610ba5565b60405180910390f35b61025960048036038101906102549190610a58565b610772565b6040516102669190610b8a565b60405180910390f35b610289600480360381019061028491906109c5565b6108e7565b6040516102969190610c07565b60405180910390f35b60035481565b600080546102b290610d6b565b80601f01602080910402602001604051908101604052809291908181526020018280546102de90610d6b565b801561032b5780601f106103005761010080835404028352916020019161032b565b820191906000526020600020905b81548152906001019060200180831161030e57829003601f168201915b505050505081565b600081600560003373ffffffffffffffffffffffffffffffffffffffff1673ffffffffffffffffffffffffffffffffffffffff16815260200190815260200160002060008573ffffffffffffffffffffffffffffffffffffffff1673ffffffffffffffffffffffffffffffffffffffff168152602001908152602001600020819055507f8c5be1e5ebec7d5bd14f71427d1e84f3dd0314c0f7b2291e5b200ac8c7c3b9253384846040516103e993929190610b53565b60405180910390a16001905092915050565b6000600354905090565b600081600560008673ffffffffffffffffffffffffffffffffffffffff1673ffffffffffffffffffffffffffffffffffffffff16815260200190815260200160002060003373ffffffffffffffffffffffffffffffffffffffff1673ffffffffffffffffffffffffffffffffffffffff1681526020019081526020016000205410156104c6576040517f08c379a00000000000000000000000000000000000000000000000000000000081526004016104bd90610be7565b60405180910390fd5b81600460008673ffffffffffffffffffffffffffffffffffffffff1673ffffffffffffffffffffffffffffffffffffffff16815260200190815260200160002060008282546105159190610caf565b9250508190555081600460008573ffffffffffffffffffffffffffffffffffffffff1673ffffffffffffffffffffffffffffffffffffffff168152602001908152602001600020600082825461056b9190610c59565b9250508190555081600560008673ffffffffffffffffffffffffffffffffffffffff1673ffffffffffffffffffffffffffffffffffffffff16815260200190815260200160002060003373ffffffffffffffffffffffffffffffffffffffff1673ffffffffffffffffffffffffffffffffffffffff16815260200190815260200160002060008282546105fe9190610caf565b925050819055507fddf252ad1be2c89b69c2b068fc378daa952ba7f163c4a11628f55a4df523b3ef84848460405161063893929190610b53565b60405180910390a1600190509392505050565b60046020528060005260406000206000915090505481565b600260009054906101000a900460ff1681565b6005602052816000526040600020602052806000526040600020600091509150505481565b6000600460008373ffffffffffffffffffffffffffffffffffffffff1673ffffffffffffffffffffffffffffffffffffffff168152602001908152602001600020549050919050565b600180546106f190610d6b565b80601f016020809104026020016040519081016040528092919081815260200182805461071d90610d6b565b801561076a5780601f1061073f5761010080835404028352916020019161076a565b820191906000526020600020905b81548152906001019060200180831161074d57829003601f168201915b505050505081565b600081600460003373ffffffffffffffffffffffffffffffffffffffff1673ffffffffffffffffffffffffffffffffffffffff1681526020019081526020016000205410156107f6576040517f08c379a00000000000000000000000000000000000000000000000000000000081526004016107ed90610bc7565b60405180910390fd5b81600460003373ffffffffffffffffffffffffffffffffffffffff1673ffffffffffffffffffffffffffffffffffffffff16815260200190815260200160002060008282546108459190610caf565b9250508190555081600460008573ffffffffffffffffffffffffffffffffffffffff1673ffffffffffffffffffffffffffffffffffffffff168152602001908152602001600020600082825461089b9190610c59565b925050819055507fddf252ad1be2c89b69c2b068fc378daa952ba7f163c4a11628f55a4df523b3ef3384846040516108d593929190610b53565b60405180910390a16001905092915050565b6000600560008473ffffffffffffffffffffffffffffffffffffffff1673ffffffffffffffffffffffffffffffffffffffff16815260200190815260200160002060008373ffffffffffffffffffffffffffffffffffffffff1673ffffffffffffffffffffffffffffffffffffffff16815260200190815260200160002054905092915050565b60008135905061097d81610e89565b92915050565b60008135905061099281610ea0565b92915050565b6000602082840312156109ae576109ad610dfb565b5b60006109bc8482850161096e565b91505092915050565b600080604083850312156109dc576109db610dfb565b5b60006109ea8582860161096e565b92505060206109fb8582860161096e565b9150509250929050565b600080600060608486031215610a1e57610a1d610dfb565b5b6000610a2c8682870161096e565b9350506020610a3d8682870161096e565b9250506040610a4e86828701610983565b9150509250925092565b60008060408385031215610a6f57610a6e610dfb565b5b6000610a7d8582860161096e565b9250506020610a8e85828601610983565b9150509250929050565b610aa181610ce3565b82525050565b610ab081610cf5565b82525050565b6000610ac182610c3d565b610acb8185610c48565b9350610adb818560208601610d38565b610ae481610e00565b840191505092915050565b6000610afc601d83610c48565b9150610b0782610e11565b602082019050919050565b6000610b1f602783610c48565b9150610b2a82610e3a565b604082019050919050565b610b3e81610d21565b82525050565b610b4d81610d2b565b82525050565b6000606082019050610b686000830186610a98565b610b756020830185610a98565b610b826040830184610b35565b949350505050565b6000602082019050610b9f6000830184610aa7565b92915050565b60006020820190508181036000830152610bbf8184610ab6565b905092915050565b60006020820190508181036000830152610be081610aef565b9050919050565b60006020820190508181036000830152610c0081610b12565b9050919050565b6000602082019050610c1c6000830184610b35565b92915050565b6000602082019050610c376000830184610b44565b92915050565b600081519050919050565b600082825260208201905092915050565b6000610c6482610d21565b9150610c6f83610d21565b9250827fffffffffffffffffffffffffffffffffffffffffffffffffffffffffffffffff03821115610ca457610ca3610d9d565b5b828201905092915050565b6000610cba82610d21565b9150610cc583610d21565b925082821015610cd857610cd7610d9d565b5b828203905092915050565b6000610cee82610d01565b9050919050565b60008115159050919050565b600073ffffffffffffffffffffffffffffffffffffffff82169050919050565b6000819050919050565b600060ff82169050919050565b60005b83811015610d56578082015181840152602081019050610d3b565b83811115610d65576000848401525b50505050565b60006002820490506001821680610d8357607f821691505b60208210811415610d9757610d96610dcc565b5b50919050565b7f4e487b7100000000000000000000000000000000000000000000000000000000600052601160045260246000fd5b7f4e487b7100000000000000000000000000000000000000000000000000000000600052602260045260246000fd5b600080fd5b6000601f19601f8301169050919050565b7f596f7520646f206e6f74206861766520656e6f75676820546f6b656e73000000600082015250565b7f44656c656761746520646f6573206e6f74206861766520656e6f75676820616c60008201527f6c6f77616e636500000000000000000000000000000000000000000000000000602082015250565b610e9281610ce3565b8114610e9d57600080fd5b50565b610ea981610d21565b8114610eb457600080fd5b5056fea26469706673582212202dd42f65f5f719648248b7ff4a9bd5142fe9bcab11e426b3382f3cffbb62cde264736f6c63430008070033",
  "immutableReferences": {},
  "source": "// SPDX-License-Identifier: MIT\r\npragma solidity >=0.7.0 <0.9.0;\r\n\r\ncontract ERC20Token {\r\n    string public name;\r\n    string public symbol;\r\n    uint8 public decimals;\r\n    uint256 public supply;\r\n\r\n    mapping(address => uint256) public balances;\r\n    mapping(address => mapping(address => uint256)) public allowed;\r\n\r\n    event Transfer(address sender, address receiver, uint256 tokens);\r\n    event Approval(address sender, address delegate, uint256 tokens);\r\n\r\n    constructor(\r\n        string memory _name,\r\n        string memory _symbol,\r\n        uint8 _decimals,\r\n        uint256 _supply\r\n    ) {\r\n        name = _name;\r\n        symbol = _symbol;\r\n        decimals = _decimals;\r\n        supply = _supply;\r\n        balances[msg.sender] = _supply;\r\n    }\r\n\r\n    function totalSupply() external view returns (uint256) {\r\n        return supply;\r\n    }\r\n\r\n    function balanceOf(address tokenOwner) external view returns (uint256) {\r\n        return balances[tokenOwner];\r\n    }\r\n\r\n    function transfer(address receiver, uint256 numTokens)\r\n        external\r\n        returns (bool)\r\n    {\r\n        require(\r\n            balances[msg.sender] >= numTokens,\r\n            \"You do not have enough Tokens\"\r\n        );\r\n        balances[msg.sender] -= numTokens;\r\n        balances[receiver] += numTokens;\r\n        emit Transfer(msg.sender, receiver, numTokens);\r\n        return true;\r\n    }\r\n\r\n    function approve(address delegate, uint256 numTokens)\r\n        external\r\n        returns (bool)\r\n    {\r\n        allowed[msg.sender][delegate] = numTokens;\r\n        emit Approval(msg.sender, delegate, numTokens);\r\n        return true;\r\n    }\r\n\r\n    function allowance(address owner, address delegate)\r\n        external\r\n        view\r\n        returns (uint256)\r\n    {\r\n        return allowed[owner][delegate];\r\n    }\r\n\r\n    function transferFrom(\r\n        address owner,\r\n        address buyer,\r\n        uint256 numTokens\r\n    ) external returns (bool) {\r\n        require(\r\n            allowed[owner][msg.sender] >= numTokens,\r\n            \"Delegate does not have enough allowance\"\r\n        );\r\n        balances[owner] -= numTokens;\r\n        balances[buyer] += numTokens;\r\n        allowed[owner][msg.sender] -= numTokens;\r\n        emit Transfer(owner, buyer, numTokens);\r\n        return true;\r\n    }\r\n}\r\n",
  "sourcePath": "C:\\Users\\Bryan\\OneDrive\\Desktop\\Projects\\Solidity\\React Project\\ERCToken\\contracts\\ERC20Token.sol",
  "compiler": {
    "name": "solc",
    "version": "0.8.7+commit.e28d00a7.Emscripten.clang"
  },
  "schemaVersion": "3.4.3",
  "updatedAt": "2021-08-26T00:32:53.940Z",
  "networkType": "ethereum",
  "devdoc": {
    "kind": "dev",
    "methods": {},
    "version": 1
  },
  "userdoc": {
    "kind": "user",
    "methods": {},
    "version": 1
  }
}